{
  "_format": "hh-sol-artifact-1",
  "contractName": "Splitwise",
  "sourceName": "contracts/mycontract.sol",
  "abi": [
    {
      "inputs": [
        {
          "internalType": "address",
          "name": "creditor",
          "type": "address"
        },
        {
          "internalType": "int32",
          "name": "amount",
          "type": "int32"
        }
      ],
      "name": "add_IOU",
      "outputs": [],
      "stateMutability": "nonpayable",
      "type": "function"
    },
    {
      "inputs": [
        {
          "internalType": "address",
          "name": "",
          "type": "address"
        },
        {
          "internalType": "address",
          "name": "",
          "type": "address"
        }
      ],
      "name": "debts",
      "outputs": [
        {
          "internalType": "int32",
          "name": "",
          "type": "int32"
        }
      ],
      "stateMutability": "view",
      "type": "function"
    },
    {
      "inputs": [],
      "name": "getUsers",
      "outputs": [
        {
          "internalType": "address[]",
          "name": "ret",
          "type": "address[]"
        }
      ],
      "stateMutability": "view",
      "type": "function"
    },
    {
      "inputs": [
        {
          "internalType": "address",
          "name": "debtor",
          "type": "address"
        },
        {
          "internalType": "address",
          "name": "creditor",
          "type": "address"
        }
      ],
      "name": "lookup",
      "outputs": [
        {
          "internalType": "int32",
          "name": "ret",
          "type": "int32"
        }
      ],
      "stateMutability": "view",
      "type": "function"
    },
    {
      "inputs": [
        {
          "internalType": "uint256",
          "name": "",
          "type": "uint256"
        }
      ],
      "name": "users",
      "outputs": [
        {
          "internalType": "address",
          "name": "",
          "type": "address"
        }
      ],
      "stateMutability": "view",
      "type": "function"
    }
  ],
  "bytecode": "0x608060405234801561001057600080fd5b50610935806100206000396000f3fe608060405234801561001057600080fd5b50600436106100565760003560e01c8062ce8e3e1461005b578063365b98b2146100795780634ac1c33d146100a9578063713584a6146100d9578063ada187c414610109575b600080fd5b610063610125565b604051610070919061060b565b60405180910390f35b610093600480360381019061008e9190610668565b61022a565b6040516100a091906106a4565b60405180910390f35b6100c360048036038101906100be91906106eb565b610269565b6040516100d09190610747565b60405180910390f35b6100f360048036038101906100ee91906106eb565b610298565b6040516101009190610747565b60405180910390f35b610123600480360381019061011e919061078e565b61032b565b005b606060018054905067ffffffffffffffff811115610146576101456107ce565b5b6040519080825280602002602001820160405280156101745781602001602082028036833780820191505090505b50905060005b600180549050811015610226576001818154811061019b5761019a6107fd565b5b9060005260206000200160009054906101000a900473ffffffffffffffffffffffffffffffffffffffff168282815181106101d9576101d86107fd565b5b602002602001019073ffffffffffffffffffffffffffffffffffffffff16908173ffffffffffffffffffffffffffffffffffffffff1681525050808061021e9061085b565b91505061017a565b5090565b6001818154811061023a57600080fd5b906000526020600020016000915054906101000a900473ffffffffffffffffffffffffffffffffffffffff1681565b60006020528160005260406000206020528060005260406000206000915091509054906101000a900460030b81565b60008060008473ffffffffffffffffffffffffffffffffffffffff1673ffffffffffffffffffffffffffffffffffffffff16815260200190815260200160002060008373ffffffffffffffffffffffffffffffffffffffff1673ffffffffffffffffffffffffffffffffffffffff16815260200190815260200160002060009054906101000a900460030b905092915050565b61033633838361033a565b5050565b60008160030b1361034a57600080fd5b806000808573ffffffffffffffffffffffffffffffffffffffff1673ffffffffffffffffffffffffffffffffffffffff16815260200190815260200160002060008473ffffffffffffffffffffffffffffffffffffffff1673ffffffffffffffffffffffffffffffffffffffff16815260200190815260200160002060008282829054906101000a900460030b6103e191906108a3565b92506101000a81548163ffffffff021916908360030b63ffffffff16021790555061040b82610419565b61041483610419565b505050565b60005b6001805490508110156104b3578173ffffffffffffffffffffffffffffffffffffffff1660018281548110610454576104536107fd565b5b9060005260206000200160009054906101000a900473ffffffffffffffffffffffffffffffffffffffff1673ffffffffffffffffffffffffffffffffffffffff16036104a05750610518565b80806104ab9061085b565b91505061041c565b506001819080600181540180825580915050600190039060005260206000200160009091909190916101000a81548173ffffffffffffffffffffffffffffffffffffffff021916908373ffffffffffffffffffffffffffffffffffffffff1602179055505b50565b600081519050919050565b600082825260208201905092915050565b6000819050602082019050919050565b600073ffffffffffffffffffffffffffffffffffffffff82169050919050565b600061057282610547565b9050919050565b61058281610567565b82525050565b60006105948383610579565b60208301905092915050565b6000602082019050919050565b60006105b88261051b565b6105c28185610526565b93506105cd83610537565b8060005b838110156105fe5781516105e58882610588565b97506105f0836105a0565b9250506001810190506105d1565b5085935050505092915050565b6000602082019050818103600083015261062581846105ad565b905092915050565b600080fd5b6000819050919050565b61064581610632565b811461065057600080fd5b50565b6000813590506106628161063c565b92915050565b60006020828403121561067e5761067d61062d565b5b600061068c84828501610653565b91505092915050565b61069e81610567565b82525050565b60006020820190506106b96000830184610695565b92915050565b6106c881610567565b81146106d357600080fd5b50565b6000813590506106e5816106bf565b92915050565b600080604083850312156107025761070161062d565b5b6000610710858286016106d6565b9250506020610721858286016106d6565b9150509250929050565b60008160030b9050919050565b6107418161072b565b82525050565b600060208201905061075c6000830184610738565b92915050565b61076b8161072b565b811461077657600080fd5b50565b60008135905061078881610762565b92915050565b600080604083850312156107a5576107a461062d565b5b60006107b3858286016106d6565b92505060206107c485828601610779565b9150509250929050565b7f4e487b7100000000000000000000000000000000000000000000000000000000600052604160045260246000fd5b7f4e487b7100000000000000000000000000000000000000000000000000000000600052603260045260246000fd5b7f4e487b7100000000000000000000000000000000000000000000000000000000600052601160045260246000fd5b600061086682610632565b91507fffffffffffffffffffffffffffffffffffffffffffffffffffffffffffffffff82036108985761089761082c565b5b600182019050919050565b60006108ae8261072b565b91506108b98361072b565b925082820190507fffffffffffffffffffffffffffffffffffffffffffffffffffffffff800000008112637fffffff821317156108f9576108f861082c565b5b9291505056fea2646970667358221220a32eef45edb460880bf086679f784fb40e82ba54a5933dbc843471ffff0aa46364736f6c63430008110033",
  "linkReferences": {},
  "deployedLinkReferences": {}
}